{
  "contractName": "OceanToken",
  "abi": [
    {
      "constant": true,
      "inputs": [],
      "name": "_receiver",
      "outputs": [
        {
          "name": "",
          "type": "address"
        }
      ],
      "payable": false,
      "stateMutability": "view",
      "type": "function"
    },
    {
      "constant": true,
      "inputs": [],
      "name": "name",
      "outputs": [
        {
          "name": "",
          "type": "string"
        }
      ],
      "payable": false,
      "stateMutability": "view",
      "type": "function"
    },
    {
      "constant": true,
      "inputs": [],
      "name": "totalSupply",
      "outputs": [
        {
          "name": "",
          "type": "uint256"
        }
      ],
      "payable": false,
      "stateMutability": "view",
      "type": "function"
    },
    {
      "constant": true,
      "inputs": [],
      "name": "decimals",
      "outputs": [
        {
          "name": "",
          "type": "uint8"
        }
      ],
      "payable": false,
      "stateMutability": "view",
      "type": "function"
    },
    {
      "constant": false,
      "inputs": [
        {
          "name": "_spender",
          "type": "address"
        },
        {
          "name": "_subtractedValue",
          "type": "uint256"
        }
      ],
      "name": "decreaseApproval",
      "outputs": [
        {
          "name": "",
          "type": "bool"
        }
      ],
      "payable": false,
      "stateMutability": "nonpayable",
      "type": "function"
    },
    {
      "constant": true,
      "inputs": [
        {
          "name": "_owner",
          "type": "address"
        }
      ],
      "name": "balanceOf",
      "outputs": [
        {
          "name": "",
          "type": "uint256"
        }
      ],
      "payable": false,
      "stateMutability": "view",
      "type": "function"
    },
    {
      "constant": true,
      "inputs": [],
      "name": "TOTAL_SUPPLY",
      "outputs": [
        {
          "name": "",
          "type": "uint256"
        }
      ],
      "payable": false,
      "stateMutability": "view",
      "type": "function"
    },
    {
      "constant": true,
      "inputs": [],
      "name": "symbol",
      "outputs": [
        {
          "name": "",
          "type": "string"
        }
      ],
      "payable": false,
      "stateMutability": "view",
      "type": "function"
    },
    {
      "constant": false,
      "inputs": [
        {
          "name": "_spender",
          "type": "address"
        },
        {
          "name": "_addedValue",
          "type": "uint256"
        }
      ],
      "name": "increaseApproval",
      "outputs": [
        {
          "name": "",
          "type": "bool"
        }
      ],
      "payable": false,
      "stateMutability": "nonpayable",
      "type": "function"
    },
    {
      "inputs": [],
      "payable": false,
      "stateMutability": "nonpayable",
      "type": "constructor"
    },
    {
      "anonymous": false,
      "inputs": [
        {
          "indexed": true,
          "name": "owner",
          "type": "address"
        },
        {
          "indexed": true,
          "name": "spender",
          "type": "address"
        },
        {
          "indexed": false,
          "name": "value",
          "type": "uint256"
        }
      ],
      "name": "Approval",
      "type": "event"
    },
    {
      "anonymous": false,
      "inputs": [
        {
          "indexed": true,
          "name": "from",
          "type": "address"
        },
        {
          "indexed": true,
          "name": "to",
          "type": "address"
        },
        {
          "indexed": false,
          "name": "value",
          "type": "uint256"
        }
      ],
      "name": "Transfer",
      "type": "event"
    },
    {
      "constant": false,
      "inputs": [
        {
          "name": "_to",
          "type": "address"
        }
      ],
      "name": "setReceiver",
      "outputs": [
        {
          "name": "success",
          "type": "bool"
        }
      ],
      "payable": false,
      "stateMutability": "nonpayable",
      "type": "function"
    },
    {
      "constant": false,
      "inputs": [
        {
          "name": "_to",
          "type": "address"
        },
        {
          "name": "_value",
          "type": "uint256"
        }
      ],
      "name": "transfer",
      "outputs": [
        {
          "name": "",
          "type": "bool"
        }
      ],
      "payable": false,
      "stateMutability": "nonpayable",
      "type": "function"
    },
    {
      "constant": false,
      "inputs": [
        {
          "name": "_from",
          "type": "address"
        },
        {
          "name": "_to",
          "type": "address"
        },
        {
          "name": "_value",
          "type": "uint256"
        }
      ],
      "name": "transferFrom",
      "outputs": [
        {
          "name": "",
          "type": "bool"
        }
      ],
      "payable": false,
      "stateMutability": "nonpayable",
      "type": "function"
    },
    {
      "constant": false,
      "inputs": [
        {
          "name": "_spender",
          "type": "address"
        },
        {
          "name": "_value",
          "type": "uint256"
        }
      ],
      "name": "approve",
      "outputs": [
        {
          "name": "",
          "type": "bool"
        }
      ],
      "payable": false,
      "stateMutability": "nonpayable",
      "type": "function"
    },
    {
      "constant": true,
      "inputs": [
        {
          "name": "_owner",
          "type": "address"
        },
        {
          "name": "_spender",
          "type": "address"
        }
      ],
      "name": "allowance",
      "outputs": [
        {
          "name": "",
          "type": "uint256"
        }
      ],
      "payable": false,
      "stateMutability": "view",
      "type": "function"
    }
  ],
  "bytecode": "0x608060405260038054600160a060020a031916905534801561002057600080fd5b506b04860d8812f0b38878000000600455610aeb806100406000396000f3006080604052600436106100cf5763ffffffff7c010000000000000000000000000000000000000000000000000000000060003504166302964ff181146100d457806306fdde0314610105578063095ea7b31461018f57806318160ddd146101c757806323b872dd146101ee578063313ce56714610218578063661884631461024357806370a0823114610267578063718da7ee14610288578063902d55a5146102a957806395d89b41146102be578063a9059cbb146102d3578063d73dd623146102f7578063dd62ed3e1461031b575b600080fd5b3480156100e057600080fd5b506100e9610342565b60408051600160a060020a039092168252519081900360200190f35b34801561011157600080fd5b5061011a610351565b6040805160208082528351818301528351919283929083019185019080838360005b8381101561015457818101518382015260200161013c565b50505050905090810190601f1680156101815780820380516001836020036101000a031916815260200191505b509250505060405180910390f35b34801561019b57600080fd5b506101b3600160a060020a0360043516602435610388565b604080519115158252519081900360200190f35b3480156101d357600080fd5b506101dc61039b565b60408051918252519081900360200190f35b3480156101fa57600080fd5b506101b3600160a060020a03600435811690602435166044356103a1565b34801561022457600080fd5b5061022d61042d565b6040805160ff9092168252519081900360200190f35b34801561024f57600080fd5b506101b3600160a060020a0360043516602435610432565b34801561027357600080fd5b506101dc600160a060020a0360043516610521565b34801561029457600080fd5b506101b3600160a060020a036004351661053c565b3480156102b557600080fd5b506101dc610646565b3480156102ca57600080fd5b5061011a610656565b3480156102df57600080fd5b506101b3600160a060020a036004351660243561068d565b34801561030357600080fd5b506101b3600160a060020a0360043516602435610710565b34801561032757600080fd5b506101dc600160a060020a03600435811690602435166107a9565b600354600160a060020a031681565b60408051808201909152600a81527f4f6365616e546f6b656e00000000000000000000000000000000000000000000602082015281565b600061039483836107b5565b9392505050565b60045481565b6000600160a060020a038316151561041a57604080517f08c379a000000000000000000000000000000000000000000000000000000000815260206004820152601260248201527f546f2061646472657373206973203078302e0000000000000000000000000000604482015290519081900360640190fd5b61042584848461081b565b949350505050565b601281565b336000908152600260209081526040808320600160a060020a038616845290915281205480831061048657336000908152600260209081526040808320600160a060020a03881684529091528120556104bb565b610496818463ffffffff61099016565b336000908152600260209081526040808320600160a060020a03891684529091529020555b336000818152600260209081526040808320600160a060020a0389168085529083529281902054815190815290519293927f8c5be1e5ebec7d5bd14f71427d1e84f3dd0314c0f7b2291e5b200ac8c7c3b925929181900390910190a35060019392505050565b600160a060020a031660009081526020819052604090205490565b600354600090600160a060020a0316156105b757604080517f08c379a000000000000000000000000000000000000000000000000000000000815260206004820152601c60248201527f52656365697665722061646472657373206973206e6f74203078302e00000000604482015290519081900360640190fd5b6003805473ffffffffffffffffffffffffffffffffffffffff1916600160a060020a038481169190911780835581166000908152602081815260408083206b04860d8812f0b388780000009081905594548151958652905193169391927fddf252ad1be2c89b69c2b068fc378daa952ba7f163c4a11628f55a4df523b3ef9281900390910190a3506001919050565b6b04860d8812f0b3887800000081565b60408051808201909152600381527f4f434e0000000000000000000000000000000000000000000000000000000000602082015281565b6000600160a060020a038316151561070657604080517f08c379a000000000000000000000000000000000000000000000000000000000815260206004820152601260248201527f546f2061646472657373206973203078302e0000000000000000000000000000604482015290519081900360640190fd5b61039483836109a2565b336000908152600260209081526040808320600160a060020a0386168452909152812054610744908363ffffffff610a8116565b336000818152600260209081526040808320600160a060020a0389168085529083529281902085905580519485525191937f8c5be1e5ebec7d5bd14f71427d1e84f3dd0314c0f7b2291e5b200ac8c7c3b925929081900390910190a350600192915050565b60006103948383610a94565b336000818152600260209081526040808320600160a060020a038716808552908352818420869055815186815291519394909390927f8c5be1e5ebec7d5bd14f71427d1e84f3dd0314c0f7b2291e5b200ac8c7c3b925928290030190a350600192915050565b600160a060020a03831660009081526020819052604081205482111561084057600080fd5b600160a060020a038416600090815260026020908152604080832033845290915290205482111561087057600080fd5b600160a060020a038316151561088557600080fd5b600160a060020a0384166000908152602081905260409020546108ae908363ffffffff61099016565b600160a060020a0380861660009081526020819052604080822093909355908516815220546108e3908363ffffffff610a8116565b600160a060020a03808516600090815260208181526040808320949094559187168152600282528281203382529091522054610925908363ffffffff61099016565b600160a060020a03808616600081815260026020908152604080832033845282529182902094909455805186815290519287169391927fddf252ad1be2c89b69c2b068fc378daa952ba7f163c4a11628f55a4df523b3ef929181900390910190a35060019392505050565b60008282111561099c57fe5b50900390565b336000908152602081905260408120548211156109be57600080fd5b600160a060020a03831615156109d357600080fd5b336000908152602081905260409020546109f3908363ffffffff61099016565b3360009081526020819052604080822092909255600160a060020a03851681522054610a25908363ffffffff610a8116565b600160a060020a038416600081815260208181526040918290209390935580518581529051919233927fddf252ad1be2c89b69c2b068fc378daa952ba7f163c4a11628f55a4df523b3ef9281900390910190a350600192915050565b81810182811015610a8e57fe5b92915050565b600160a060020a039182166000908152600260209081526040808320939094168252919091522054905600a165627a7a72305820a2bb72717c2aac14ad03b503efc2716a0b37939658b095a06208b2807c6214330029",
  "source": "pragma solidity ^0.4.24;\n\nimport 'openzeppelin-solidity/contracts/token/ERC20/StandardToken.sol';\nimport 'openzeppelin-solidity/contracts/ownership/Ownable.sol';\n\n/**\n@title Ocean Protocol ERC20 Token Contract\n@author Team: Fang Gong\n*/\n\ncontract OceanToken is StandardToken {\n\n    using SafeMath for uint256;\n\n    // ============\n    // DATA STRUCTURES:\n    // ============\n    string public constant name = 'OceanToken';                         // Set the token name for display\n    string public constant symbol = 'OCN';                              // Set the token symbol for display\n\n    // SUPPLY\n    uint8 public constant decimals = 18;                               // Set the number of decimals for display\n    uint256 public constant TOTAL_SUPPLY = 1400000000 * 10 ** 18;      // OceanToken total supply\n\n    // EMIT TOKENS\n    address public _receiver = 0x0;                                   // address to receive TOKENS\n    uint256 public totalSupply;                                       // total supply of Ocean tokens including initial tokens plus block rewards\n\n    /**\n    * @dev OceanToken Constructor\n    * Runs only on initial contract creation.\n    */\n    constructor() public {\n        totalSupply = TOTAL_SUPPLY;\n    }\n\n    /**\n    * @dev setReceiver set the address to receive the emitted tokens\n    * @param _to The address to send tokens\n    * @return success setting is successful.\n    */\n    function setReceiver(address _to) public returns (bool success){\n        require(_receiver == address(0), 'Receiver address is not 0x0.');\n        _receiver = _to;\n        // Creator address is assigned initial available tokens\n        balances[_receiver] = TOTAL_SUPPLY;\n        emit Transfer(0x0, _receiver, TOTAL_SUPPLY);\n        return true;\n    }\n\n    /**\n    * @dev Transfer token for a specified address when not paused\n    * @param _to The address to transfer to.\n    * @param _value The amount to be transferred.\n    */\n    function transfer(address _to, uint256 _value) public returns (bool) {\n        require(_to != address(0), 'To address is 0x0.');\n        return super.transfer(_to, _value);\n    }\n\n    /**\n    * @dev Transfer tokens from one address to another when not paused\n    * @param _from address The address which you want to send tokens from\n    * @param _to address The address which you want to transfer to\n    * @param _value uint256 the amount of tokens to be transferred\n    */\n    function transferFrom(address _from, address _to, uint256 _value) public returns (bool) {\n        require(_to != address(0), 'To address is 0x0.');\n        return super.transferFrom(_from, _to, _value);\n    }\n\n    /**\n    * @dev Aprove the passed address to spend the specified amount of tokens on behalf of msg.sender when not paused.\n    * @param _spender The address which will spend the funds.\n    * @param _value The amount of tokens to be spent.\n    */\n    function approve(address _spender, uint256 _value) public returns (bool) {\n        return super.approve(_spender, _value);\n    }\n\n    /**\n    * @dev Gets the allowance amount of the specified address.\n    * @param _owner The address to query the the allowance of.\n    * @return An uint256 representing the amount allowance of the passed address.\n    */\n    function allowance(address _owner, address _spender) public view returns (uint256) {\n        return super.allowance(_owner, _spender);\n    }\n\n}\n",
  "sourcePath": "/home/eruiz/Projects/keeper-contracts/contracts/token/OceanToken.sol",
  "compiler": {
    "name": "solc",
    "version": "0.4.24+commit.e67f0147.Emscripten.clang"
  },
  "schemaVersion": "2.0.0",
  "updatedAt": "2018-09-18T10:00:39.425Z"
}